{
  "_format": "hh-sol-artifact-1",
  "contractName": "TokenZ",
  "sourceName": "contracts/TokenZ.sol",
  "abi": [
    {
      "inputs": [],
      "stateMutability": "nonpayable",
      "type": "constructor"
    },
    {
      "anonymous": false,
      "inputs": [
        {
          "indexed": true,
          "internalType": "address",
          "name": "owner",
          "type": "address"
        },
        {
          "indexed": true,
          "internalType": "address",
          "name": "spender",
          "type": "address"
        },
        {
          "indexed": false,
          "internalType": "uint256",
          "name": "value",
          "type": "uint256"
        }
      ],
      "name": "Approval",
      "type": "event"
    },
    {
      "anonymous": false,
      "inputs": [
        {
          "indexed": true,
          "internalType": "address",
          "name": "from",
          "type": "address"
        },
        {
          "indexed": true,
          "internalType": "address",
          "name": "to",
          "type": "address"
        },
        {
          "indexed": true,
          "internalType": "address",
          "name": "issuer",
          "type": "address"
        },
        {
          "indexed": false,
          "internalType": "uint256",
          "name": "value",
          "type": "uint256"
        }
      ],
      "name": "Fee",
      "type": "event"
    },
    {
      "anonymous": false,
      "inputs": [
        {
          "indexed": true,
          "internalType": "address",
          "name": "account",
          "type": "address"
        }
      ],
      "name": "MinterAdded",
      "type": "event"
    },
    {
      "anonymous": false,
      "inputs": [
        {
          "indexed": true,
          "internalType": "address",
          "name": "account",
          "type": "address"
        }
      ],
      "name": "MinterRemoved",
      "type": "event"
    },
    {
      "anonymous": false,
      "inputs": [
        {
          "indexed": true,
          "internalType": "address",
          "name": "previousOwner",
          "type": "address"
        },
        {
          "indexed": true,
          "internalType": "address",
          "name": "newOwner",
          "type": "address"
        }
      ],
      "name": "OwnershipTransferred",
      "type": "event"
    },
    {
      "anonymous": false,
      "inputs": [
        {
          "indexed": true,
          "internalType": "address",
          "name": "from",
          "type": "address"
        },
        {
          "indexed": true,
          "internalType": "address",
          "name": "to",
          "type": "address"
        },
        {
          "indexed": false,
          "internalType": "uint256",
          "name": "value",
          "type": "uint256"
        }
      ],
      "name": "Transfer",
      "type": "event"
    },
    {
      "inputs": [
        {
          "internalType": "address",
          "name": "account",
          "type": "address"
        }
      ],
      "name": "addMinter",
      "outputs": [],
      "stateMutability": "nonpayable",
      "type": "function"
    },
    {
      "inputs": [
        {
          "internalType": "address",
          "name": "owner",
          "type": "address"
        },
        {
          "internalType": "address",
          "name": "spender",
          "type": "address"
        }
      ],
      "name": "allowance",
      "outputs": [
        {
          "internalType": "uint256",
          "name": "",
          "type": "uint256"
        }
      ],
      "stateMutability": "view",
      "type": "function"
    },
    {
      "inputs": [
        {
          "internalType": "address",
          "name": "spender",
          "type": "address"
        },
        {
          "internalType": "uint256",
          "name": "value",
          "type": "uint256"
        }
      ],
      "name": "approve",
      "outputs": [
        {
          "internalType": "bool",
          "name": "",
          "type": "bool"
        }
      ],
      "stateMutability": "nonpayable",
      "type": "function"
    },
    {
      "inputs": [
        {
          "internalType": "address",
          "name": "owner",
          "type": "address"
        }
      ],
      "name": "balanceOf",
      "outputs": [
        {
          "internalType": "uint256",
          "name": "",
          "type": "uint256"
        }
      ],
      "stateMutability": "view",
      "type": "function"
    },
    {
      "inputs": [
        {
          "internalType": "uint256",
          "name": "value",
          "type": "uint256"
        }
      ],
      "name": "burn",
      "outputs": [
        {
          "internalType": "bool",
          "name": "",
          "type": "bool"
        }
      ],
      "stateMutability": "nonpayable",
      "type": "function"
    },
    {
      "inputs": [],
      "name": "decimals",
      "outputs": [
        {
          "internalType": "uint8",
          "name": "",
          "type": "uint8"
        }
      ],
      "stateMutability": "view",
      "type": "function"
    },
    {
      "inputs": [
        {
          "internalType": "uint256",
          "name": "value",
          "type": "uint256"
        }
      ],
      "name": "estimateFee",
      "outputs": [
        {
          "internalType": "uint256",
          "name": "",
          "type": "uint256"
        }
      ],
      "stateMutability": "view",
      "type": "function"
    },
    {
      "inputs": [
        {
          "internalType": "address",
          "name": "account",
          "type": "address"
        }
      ],
      "name": "isMinter",
      "outputs": [
        {
          "internalType": "bool",
          "name": "",
          "type": "bool"
        }
      ],
      "stateMutability": "view",
      "type": "function"
    },
    {
      "inputs": [],
      "name": "issuer",
      "outputs": [
        {
          "internalType": "address",
          "name": "",
          "type": "address"
        }
      ],
      "stateMutability": "view",
      "type": "function"
    },
    {
      "inputs": [],
      "name": "minFee",
      "outputs": [
        {
          "internalType": "uint256",
          "name": "",
          "type": "uint256"
        }
      ],
      "stateMutability": "view",
      "type": "function"
    },
    {
      "inputs": [
        {
          "internalType": "address",
          "name": "to",
          "type": "address"
        },
        {
          "internalType": "uint256",
          "name": "value",
          "type": "uint256"
        }
      ],
      "name": "mint",
      "outputs": [
        {
          "internalType": "bool",
          "name": "",
          "type": "bool"
        }
      ],
      "stateMutability": "nonpayable",
      "type": "function"
    },
    {
      "inputs": [],
      "name": "name",
      "outputs": [
        {
          "internalType": "string",
          "name": "",
          "type": "string"
        }
      ],
      "stateMutability": "view",
      "type": "function"
    },
    {
      "inputs": [],
      "name": "owner",
      "outputs": [
        {
          "internalType": "address",
          "name": "",
          "type": "address"
        }
      ],
      "stateMutability": "view",
      "type": "function"
    },
    {
      "inputs": [],
      "name": "renounceMinter",
      "outputs": [],
      "stateMutability": "nonpayable",
      "type": "function"
    },
    {
      "inputs": [],
      "name": "renounceOwnership",
      "outputs": [],
      "stateMutability": "nonpayable",
      "type": "function"
    },
    {
      "inputs": [
        {
          "internalType": "uint256",
          "name": "_amount",
          "type": "uint256"
        }
      ],
      "name": "selfMint",
      "outputs": [],
      "stateMutability": "nonpayable",
      "type": "function"
    },
    {
      "inputs": [
        {
          "internalType": "uint256",
          "name": "value",
          "type": "uint256"
        }
      ],
      "name": "setMinFee",
      "outputs": [],
      "stateMutability": "nonpayable",
      "type": "function"
    },
    {
      "inputs": [
        {
          "internalType": "uint256",
          "name": "_limit",
          "type": "uint256"
        }
      ],
      "name": "setMintLimit",
      "outputs": [],
      "stateMutability": "nonpayable",
      "type": "function"
    },
    {
      "inputs": [],
      "name": "symbol",
      "outputs": [
        {
          "internalType": "string",
          "name": "",
          "type": "string"
        }
      ],
      "stateMutability": "view",
      "type": "function"
    },
    {
      "inputs": [],
      "name": "totalSupply",
      "outputs": [
        {
          "internalType": "uint256",
          "name": "",
          "type": "uint256"
        }
      ],
      "stateMutability": "view",
      "type": "function"
    },
    {
      "inputs": [
        {
          "internalType": "address",
          "name": "to",
          "type": "address"
        },
        {
          "internalType": "uint256",
          "name": "value",
          "type": "uint256"
        }
      ],
      "name": "transfer",
      "outputs": [
        {
          "internalType": "bool",
          "name": "",
          "type": "bool"
        }
      ],
      "stateMutability": "nonpayable",
      "type": "function"
    },
    {
      "inputs": [
        {
          "internalType": "address",
          "name": "from",
          "type": "address"
        },
        {
          "internalType": "address",
          "name": "to",
          "type": "address"
        },
        {
          "internalType": "uint256",
          "name": "value",
          "type": "uint256"
        }
      ],
      "name": "transferFrom",
      "outputs": [
        {
          "internalType": "bool",
          "name": "",
          "type": "bool"
        }
      ],
      "stateMutability": "nonpayable",
      "type": "function"
    },
    {
      "inputs": [
        {
          "internalType": "address",
          "name": "newOwner",
          "type": "address"
        }
      ],
      "name": "transferOwnership",
      "outputs": [],
      "stateMutability": "nonpayable",
      "type": "function"
    }
  ],
  "bytecode": "0x60806040523480156200001157600080fd5b506040518060400160405280600681526020016568616970726f60d01b8152506040518060400160405280600381526020016224282960e91b8152506012655af3107a4000600062000069336200017c60201b60201c565b84516200007e906006906020880190620003d6565b50835162000094906007906020870190620003d6565b506008805460ff191660ff8516179055620000b03383620001ce565b620000bb3362000286565b620000c581600155565b50505050506000620000dc620002bc60201b60201c565b60088054610100600160a81b0319166101006001600160a01b03841690810291909117909155604051919250906000907f8be0079c531659141344cd1fd0a4f28419497f9722a3daafe3b4186f6b6457e0908290a3506200013f612710620002c0565b62000176336200015160085460ff1690565b620001619060ff16600a620004e4565b6200017090620f4240620005cc565b620001ce565b62000641565b620001978160056200032a60201b62000a3d1790919060201c565b6040516001600160a01b038216907f6ae172837ea30b801fbfcdd4108aa1d5bf8ff775444fd70256b44e6bf3dfc3f690600090a250565b6001600160a01b038216620001e257600080fd5b620001fe816004546200037a60201b62000a891790919060201c565b6004556001600160a01b038216600090815260208181526040909120546200023191839062000a896200037a821b17901c565b6001600160a01b038316600081815260208181526040808320949094559251848152919290917fddf252ad1be2c89b69c2b068fc378daa952ba7f163c4a11628f55a4df523b3ef910160405180910390a35050565b6001600160a01b0381166200029a57600080fd5b600280546001600160a01b0319166001600160a01b0392909216919091179055565b3390565b6008546001600160a01b03610100909104163314620003255760405162461bcd60e51b815260206004820181905260248201527f4f776e61626c653a2063616c6c6572206973206e6f7420746865206f776e6572604482015260640160405180910390fd5b600955565b6001600160a01b0381166200033e57600080fd5b6200034a8282620003a0565b156200035557600080fd5b6001600160a01b0316600090815260209190915260409020805460ff19166001179055565b6000806200038983856200047c565b9050838110156200039957600080fd5b9392505050565b60006001600160a01b038216620003b657600080fd5b506001600160a01b03166000908152602091909152604090205460ff1690565b828054620003e490620005ee565b90600052602060002090601f01602090048101928262000408576000855562000453565b82601f106200042357805160ff191683800117855562000453565b8280016001018555821562000453579182015b828111156200045357825182559160200191906001019062000436565b506200046192915062000465565b5090565b5b8082111562000461576000815560010162000466565b600082198211156200049257620004926200062b565b500190565b80825b6001808611620004ab5750620004db565b818704821115620004c057620004c06200062b565b80861615620004ce57918102915b9490941c9380026200049a565b94509492505050565b6000620003996000198484600082620005005750600162000399565b816200050f5750600062000399565b8160018114620005285760028114620005335762000567565b600191505062000399565b60ff8411156200054757620005476200062b565b6001841b9150848211156200056057620005606200062b565b5062000399565b5060208310610133831016604e8410600b84101617156200059f575081810a838111156200059957620005996200062b565b62000399565b620005ae848484600162000497565b808604821115620005c357620005c36200062b565b02949350505050565b6000816000190483118215151615620005e957620005e96200062b565b500290565b600181811c908216806200060357607f821691505b602082108114156200062557634e487b7160e01b600052602260045260246000fd5b50919050565b634e487b7160e01b600052601160045260246000fd5b61105f80620006516000396000f3fe608060405234801561001057600080fd5b506004361061018d5760003560e01c806342966c68116100e3578063986502751161008c578063aa271e1a11610066578063aa271e1a14610330578063dd62ed3e14610343578063f2fde38b1461037c5761018d565b806398650275146103025780639e6a1d7d1461030a578063a9059cbb1461031d5761018d565b80638da5cb5b116100bd5780638da5cb5b146102d057806395d89b41146102e7578063983b2d56146102ef5761018d565b806342966c681461028c57806370a082311461029f578063715018a6146102c85761018d565b80631d14384811610145578063313ce5671161011f578063313ce5671461025157806331ac99201461026657806340c10f19146102795761018d565b80631d1438481461021157806323b872dd1461023657806324ec7590146102495761018d565b80630d3c69b4116101765780630d3c69b4146101d3578063127e8e4d146101e857806318160ddd146102095761018d565b806306fdde0314610192578063095ea7b3146101b0575b600080fd5b61019a61038f565b6040516101a79190610f17565b60405180910390f35b6101c36101be366004610ed6565b610421565b60405190151581526020016101a7565b6101e66101e1366004610eff565b6104da565b005b6101fb6101f6366004610eff565b61050f565b6040519081526020016101a7565b6004546101fb565b6002546001600160a01b03165b6040516001600160a01b0390911681526020016101a7565b6101c3610244366004610e9b565b610531565b6001546101fb565b60085460405160ff90911681526020016101a7565b6101e6610274366004610eff565b61066a565b6101c3610287366004610ed6565b61068a565b6101c361029a366004610eff565b6106b1565b6101fb6102ad366004610e4f565b6001600160a01b031660009081526020819052604090205490565b6101e66106c5565b61021e60085461010090046001600160a01b031690565b61019a610787565b6101e66102fd366004610e4f565b610796565b6101e66107b1565b6101e6610318366004610eff565b6107bc565b6101c361032b366004610ed6565b610821565b6101c361033e366004610e4f565b6108e0565b6101fb610351366004610e69565b6001600160a01b03918216600090815260036020908152604080832093909416825291909152205490565b6101e661038a366004610e4f565b6108ed565b60606006805461039e90610fd8565b80601f01602080910402602001604051908101604052809291908181526020018280546103ca90610fd8565b80156104175780601f106103ec57610100808354040283529160200191610417565b820191906000526020600020905b8154815290600101906020018083116103fa57829003601f168201915b5050505050905090565b60006001600160a01b03831661043657600080fd5b60015433600090815260208190526040902054101561045457600080fd5b3360008181526003602090815260408083206001600160a01b038881168552925290912084905560025460015461049093929190911690610aac565b6040518281526001600160a01b0384169033907f8c5be1e5ebec7d5bd14f71427d1e84f3dd0314c0f7b2291e5b200ac8c7c3b9259060200160405180910390a35060015b92915050565b600954336000908152602081905260409020546104f8908390610f6a565b1061050257600080fd5b61050c3382610b8f565b50565b600154600090610529906105238484610c2b565b90610a89565b90505b919050565b60008061054960015484610a8990919063ffffffff16565b90506001600160a01b03841661055e57600080fd5b8083111561056b57600080fd5b6001600160a01b038516600090815260036020908152604080832033845290915290205481111561059b57600080fd5b6001600160a01b03851660009081526003602090815260408083203384529091529020546105c99082610c5d565b6001600160a01b03861660009081526003602090815260408083203384529091529020556105f8858585610aac565b6002546001546106159187916001600160a01b0390911690610aac565b6002546001546040519081526001600160a01b039182169186169033907ffcf5b3276434181e3c48bd3fe569b8939808f11e845d4b963693b9d7dbd6dd999060200160405180910390a4506001949350505050565b6002546001600160a01b0316331461068157600080fd5b61050c81600155565b6000610695336108e0565b61069e57600080fd5b6106a88383610b8f565b50600192915050565b60006106bd3383610c80565b506001919050565b6008546001600160a01b0361010090910416331461072a5760405162461bcd60e51b815260206004820181905260248201527f4f776e61626c653a2063616c6c6572206973206e6f7420746865206f776e657260448201526064015b60405180910390fd5b60085460405160009161010090046001600160a01b0316907f8be0079c531659141344cd1fd0a4f28419497f9722a3daafe3b4186f6b6457e0908390a36008805474ffffffffffffffffffffffffffffffffffffffff0019169055565b60606007805461039e90610fd8565b61079f336108e0565b6107a857600080fd5b61050c81610d37565b6107ba33610d79565b565b6008546001600160a01b0361010090910416331461081c5760405162461bcd60e51b815260206004820181905260248201527f4f776e61626c653a2063616c6c6572206973206e6f7420746865206f776e65726044820152606401610721565b600955565b60008061083960015484610a8990919063ffffffff16565b90506001600160a01b03841661084e57600080fd5b8083111561085b57600080fd5b610866338585610aac565b600154156108d65760025460015461088b9133916001600160a01b0390911690610aac565b6002546001546040519081526001600160a01b039182169186169033907ffcf5b3276434181e3c48bd3fe569b8939808f11e845d4b963693b9d7dbd6dd999060200160405180910390a45b5060019392505050565b6000610529600583610dbb565b6008546001600160a01b0361010090910416331461094d5760405162461bcd60e51b815260206004820181905260248201527f4f776e61626c653a2063616c6c6572206973206e6f7420746865206f776e65726044820152606401610721565b6001600160a01b0381166109c95760405162461bcd60e51b815260206004820152602660248201527f4f776e61626c653a206e6577206f776e657220697320746865207a65726f206160448201527f64647265737300000000000000000000000000000000000000000000000000006064820152608401610721565b6008546040516001600160a01b0380841692610100900416907f8be0079c531659141344cd1fd0a4f28419497f9722a3daafe3b4186f6b6457e090600090a3600880546001600160a01b039092166101000274ffffffffffffffffffffffffffffffffffffffff0019909216919091179055565b6001600160a01b038116610a5057600080fd5b610a5a8282610dbb565b15610a6457600080fd5b6001600160a01b0316600090815260209190915260409020805460ff19166001179055565b600080610a968385610f6a565b905083811015610aa557600080fd5b9392505050565b6001600160a01b038316600090815260208190526040902054811115610ad157600080fd5b6001600160a01b038216610ae457600080fd5b6001600160a01b038316600090815260208190526040902054610b079082610c5d565b6001600160a01b038085166000908152602081905260408082209390935590841681522054610b369082610a89565b6001600160a01b038381166000818152602081815260409182902094909455518481529092918616917fddf252ad1be2c89b69c2b068fc378daa952ba7f163c4a11628f55a4df523b3ef910160405180910390a3505050565b6001600160a01b038216610ba257600080fd5b600454610baf9082610a89565b6004556001600160a01b038216600090815260208190526040902054610bd59082610a89565b6001600160a01b038316600081815260208181526040808320949094559251848152919290917fddf252ad1be2c89b69c2b068fc378daa952ba7f163c4a11628f55a4df523b3ef91015b60405180910390a35050565b600082610c3a575060006104d4565b6000610c468385610fa2565b905082610c538583610f82565b14610aa557600080fd5b600082821115610c6c57600080fd5b6000610c788385610fc1565b949350505050565b6001600160a01b038216610c9357600080fd5b6001600160a01b038216600090815260208190526040902054811115610cb857600080fd5b600454610cc59082610c5d565b6004556001600160a01b038216600090815260208190526040902054610ceb9082610c5d565b6001600160a01b03831660008181526020818152604080832094909455925184815290927fddf252ad1be2c89b69c2b068fc378daa952ba7f163c4a11628f55a4df523b3ef9101610c1f565b610d42600582610a3d565b6040516001600160a01b038216907f6ae172837ea30b801fbfcdd4108aa1d5bf8ff775444fd70256b44e6bf3dfc3f690600090a250565b610d84600582610df0565b6040516001600160a01b038216907fe94479a9f7e1952cc78f2d6baab678adc1b772d936c6583def489e524cb6669290600090a250565b60006001600160a01b038216610dd057600080fd5b506001600160a01b03166000908152602091909152604090205460ff1690565b6001600160a01b038116610e0357600080fd5b610e0d8282610dbb565b610e1657600080fd5b6001600160a01b0316600090815260209190915260409020805460ff19169055565b80356001600160a01b038116811461052c57600080fd5b600060208284031215610e60578081fd5b610aa582610e38565b60008060408385031215610e7b578081fd5b610e8483610e38565b9150610e9260208401610e38565b90509250929050565b600080600060608486031215610eaf578081fd5b610eb884610e38565b9250610ec660208501610e38565b9150604084013590509250925092565b60008060408385031215610ee8578182fd5b610ef183610e38565b946020939093013593505050565b600060208284031215610f10578081fd5b5035919050565b6000602080835283518082850152825b81811015610f4357858101830151858201604001528201610f27565b81811115610f545783604083870101525b50601f01601f1916929092016040019392505050565b60008219821115610f7d57610f7d611013565b500190565b600082610f9d57634e487b7160e01b81526012600452602481fd5b500490565b6000816000190483118215151615610fbc57610fbc611013565b500290565b600082821015610fd357610fd3611013565b500390565b600181811c90821680610fec57607f821691505b6020821081141561100d57634e487b7160e01b600052602260045260246000fd5b50919050565b634e487b7160e01b600052601160045260246000fdfea26469706673582212201161637603c4c24795b41a51dd1d67c8dd4750596731525ce1002d059d49ac8f64736f6c63430008030033",
  "linkReferences": {},
  "deployedLinkReferences": {}
}